{
  "contractName": "Ethprice",
  "abi": [
    {
      "constant": true,
      "inputs": [],
      "name": "ETHUSD",
      "outputs": [
        {
          "name": "",
          "type": "string"
        }
      ],
      "payable": false,
      "stateMutability": "view",
      "type": "function"
    },
    {
      "inputs": [],
      "payable": true,
      "stateMutability": "payable",
      "type": "constructor"
    },
    {
      "anonymous": false,
      "inputs": [
        {
          "indexed": false,
          "name": "_time",
          "type": "uint256"
        },
        {
          "indexed": false,
          "name": "_newprice",
          "type": "string"
        },
        {
          "indexed": false,
          "name": "gasLeft",
          "type": "uint256"
        }
      ],
      "name": "ETHUSDUpdated",
      "type": "event"
    },
    {
      "anonymous": false,
      "inputs": [
        {
          "indexed": false,
          "name": "_remainingGas",
          "type": "uint256"
        },
        {
          "indexed": false,
          "name": "estimateRemainingTime",
          "type": "uint256"
        }
      ],
      "name": "LowGasWarning",
      "type": "event"
    },
    {
      "constant": false,
      "inputs": [],
      "name": "updatePrice",
      "outputs": [],
      "payable": true,
      "stateMutability": "payable",
      "type": "function"
    },
    {
      "constant": false,
      "inputs": [
        {
          "name": "myid",
          "type": "bytes32"
        },
        {
          "name": "result",
          "type": "string"
        }
      ],
      "name": "__callback",
      "outputs": [],
      "payable": false,
      "stateMutability": "nonpayable",
      "type": "function"
    },
    {
      "constant": false,
      "inputs": [
        {
          "name": "myid",
          "type": "bytes32"
        },
        {
          "name": "result",
          "type": "string"
        },
        {
          "name": "proof",
          "type": "bytes"
        }
      ],
      "name": "__callback",
      "outputs": [],
      "payable": false,
      "stateMutability": "nonpayable",
      "type": "function"
    }
  ],
  "bytecode": "0x60806040526040805190810160405280600481526020017f7465737400000000000000000000000000000000000000000000000000000000815250600590805190602001906200005192919062000cad565b5062000127610bb86040805190810160405280600381526020017f55524c0000000000000000000000000000000000000000000000000000000000815250608060405190810160405280604c81526020017f6a736f6e2868747470733a2f2f6170692e6b72616b656e2e636f6d2f302f707581526020017f626c69632f5469636b65723f706169723d455448555344292e726573756c742e81526020017f584554485a5553442e632e3000000000000000000000000000000000000000008152506200012e640100000000026401000000009004565b5062000d5c565b60008060008060009054906101000a900473ffffffffffffffffffffffffffffffffffffffff1673ffffffffffffffffffffffffffffffffffffffff161480620001b257506000620001b06000809054906101000a900473ffffffffffffffffffffffffffffffffffffffff166200070c640100000000026401000000009004565b145b15620001d557620001d3600062000717640100000000026401000000009004565b505b6000809054906101000a900473ffffffffffffffffffffffffffffffffffffffff1673ffffffffffffffffffffffffffffffffffffffff166338cc48316040518163ffffffff167c0100000000000000000000000000000000000000000000000000000000028152600401602060405180830381600087803b1580156200025b57600080fd5b505af115801562000270573d6000803e3d6000fd5b505050506040513d60208110156200028757600080fd5b810190808051906020019092919050505073ffffffffffffffffffffffffffffffffffffffff16600160009054906101000a900473ffffffffffffffffffffffffffffffffffffffff1673ffffffffffffffffffffffffffffffffffffffff16141515620003f3576000809054906101000a900473ffffffffffffffffffffffffffffffffffffffff1673ffffffffffffffffffffffffffffffffffffffff166338cc48316040518163ffffffff167c0100000000000000000000000000000000000000000000000000000000028152600401602060405180830381600087803b1580156200037557600080fd5b505af11580156200038a573d6000803e3d6000fd5b505050506040513d6020811015620003a157600080fd5b8101908080519060200190929190505050600160006101000a81548173ffffffffffffffffffffffffffffffffffffffff021916908373ffffffffffffffffffffffffffffffffffffffff1602179055505b600160009054906101000a900473ffffffffffffffffffffffffffffffffffffffff1673ffffffffffffffffffffffffffffffffffffffff1663524f3889856040518263ffffffff167c01000000000000000000000000000000000000000000000000000000000281526004018080602001828103825283818151815260200191508051906020019080838360005b838110156200049f57808201518184015260208101905062000482565b50505050905090810190601f168015620004cd5780820380516001836020036101000a031916815260200191505b5092505050602060405180830381600087803b158015620004ed57600080fd5b505af115801562000502573d6000803e3d6000fd5b505050506040513d60208110156200051957600080fd5b8101908080519060200190929190505050905062030d403a02670de0b6b3a76400000181111562000551576000600102915062000704565b600160009054906101000a900473ffffffffffffffffffffffffffffffffffffffff1673ffffffffffffffffffffffffffffffffffffffff1663adf59f99828787876040518563ffffffff167c0100000000000000000000000000000000000000000000000000000000028152600401808481526020018060200180602001838103835285818151815260200191508051906020019080838360005b838110156200060a578082015181840152602081019050620005ed565b50505050905090810190601f168015620006385780820380516001836020036101000a031916815260200191505b50838103825284818151815260200191508051906020019080838360005b838110156200067357808201518184015260208101905062000656565b50505050905090810190601f168015620006a15780820380516001836020036101000a031916815260200191505b50955050505050506020604051808303818588803b158015620006c357600080fd5b505af1158015620006d8573d6000803e3d6000fd5b50505050506040513d6020811015620006f057600080fd5b810190808051906020019092919050505091505b509392505050565b6000813b9050919050565b60006200073262000739640100000000026401000000009004565b9050919050565b6000806200076a731d3b2638a7cc9f2cb3d298a3da7a90b67e5506ed6200070c640100000000026401000000009004565b11156200081e57731d3b2638a7cc9f2cb3d298a3da7a90b67e5506ed6000806101000a81548173ffffffffffffffffffffffffffffffffffffffff021916908373ffffffffffffffffffffffffffffffffffffffff160217905550620008146040805190810160405280600b81526020017f6574685f6d61696e6e657400000000000000000000000000000000000000000081525062000c91640100000000026401000000009004565b6001905062000c8e565b60006200084e73c03a2615d5efaf5f49f60b7bb6583eaec212fdf16200070c640100000000026401000000009004565b1115620009025773c03a2615d5efaf5f49f60b7bb6583eaec212fdf16000806101000a81548173ffffffffffffffffffffffffffffffffffffffff021916908373ffffffffffffffffffffffffffffffffffffffff160217905550620008f86040805190810160405280600c81526020017f6574685f726f707374656e33000000000000000000000000000000000000000081525062000c91640100000000026401000000009004565b6001905062000c8e565b60006200093273b7a07bcf2ba2f2703b24c0691b5278999c59ac7e6200070c640100000000026401000000009004565b1115620009e65773b7a07bcf2ba2f2703b24c0691b5278999c59ac7e6000806101000a81548173ffffffffffffffffffffffffffffffffffffffff021916908373ffffffffffffffffffffffffffffffffffffffff160217905550620009dc6040805190810160405280600981526020017f6574685f6b6f76616e000000000000000000000000000000000000000000000081525062000c91640100000000026401000000009004565b6001905062000c8e565b600062000a1673146500cfd35b22e4a392fe0adc06de1a1368ed486200070c640100000000026401000000009004565b111562000aca5773146500cfd35b22e4a392fe0adc06de1a1368ed486000806101000a81548173ffffffffffffffffffffffffffffffffffffffff021916908373ffffffffffffffffffffffffffffffffffffffff16021790555062000ac06040805190810160405280600b81526020017f6574685f72696e6b65627900000000000000000000000000000000000000000081525062000c91640100000000026401000000009004565b6001905062000c8e565b600062000afa736f485c8bf6fc43ea212e93bbf8ce046c7f1cb4756200070c640100000000026401000000009004565b111562000b5f57736f485c8bf6fc43ea212e93bbf8ce046c7f1cb4756000806101000a81548173ffffffffffffffffffffffffffffffffffffffff021916908373ffffffffffffffffffffffffffffffffffffffff1602179055506001905062000c8e565b600062000b8f7320e12a1f859b3feae5fb2a0a32c18f5a65555bbf6200070c640100000000026401000000009004565b111562000bf4577320e12a1f859b3feae5fb2a0a32c18f5a65555bbf6000806101000a81548173ffffffffffffffffffffffffffffffffffffffff021916908373ffffffffffffffffffffffffffffffffffffffff1602179055506001905062000c8e565b600062000c247351efaf4c8b3c9afbd5ab9f4bbc82784ab6ef8faa6200070c640100000000026401000000009004565b111562000c89577351efaf4c8b3c9afbd5ab9f4bbc82784ab6ef8faa6000806101000a81548173ffffffffffffffffffffffffffffffffffffffff021916908373ffffffffffffffffffffffffffffffffffffffff1602179055506001905062000c8e565b600090505b90565b806002908051906020019062000ca992919062000cad565b5050565b828054600181600116156101000203166002900490600052602060002090601f016020900481019282601f1062000cf057805160ff191683800117855562000d21565b8280016001018555821562000d21579182015b8281111562000d2057825182559160200191906001019062000d03565b5b50905062000d30919062000d34565b5090565b62000d5991905b8082111562000d5557600081600090555060010162000d3b565b5090565b90565b61183f8062000d6c6000396000f300608060405260043610610062576000357c0100000000000000000000000000000000000000000000000000000000900463ffffffff16806327dc297e1461006757806338bbfa50146100de578063673a7e281461019b57806373db0844146101a5575b600080fd5b34801561007357600080fd5b506100dc6004803603810190808035600019169060200190929190803590602001908201803590602001908080601f0160208091040260200160405190810160405280939291908181526020018383808284378201915050505050509192919290505050610235565b005b3480156100ea57600080fd5b506101996004803603810190808035600019169060200190929190803590602001908201803590602001908080601f0160208091040260200160405190810160405280939291908181526020018383808284378201915050505050509192919290803590602001908201803590602001908080601f016020809104026020016040519081016040528093929190818152602001838380828437820191505050505050919291929050505061040e565b005b6101a3610413565b005b3480156101b157600080fd5b506101ba61053b565b6040518080602001828103825283818151815260200191508051906020019080838360005b838110156101fa5780820151818401526020810190506101df565b50505050905090810190601f1680156102275780820380516001836020036101000a031916815260200191505b509250505060405180910390f35b61023d6105d9565b73ffffffffffffffffffffffffffffffffffffffff163373ffffffffffffffffffffffffffffffffffffffff1614151561027657600080fd5b3073ffffffffffffffffffffffffffffffffffffffff16316101206102cf6040805190810160405280600381526020017f55524c0000000000000000000000000000000000000000000000000000000000815250610937565b021115610330577fc59c63e07d93be1ee0317069829ae9a16973f52d850a1463990f9e2126f971ab3073ffffffffffffffffffffffffffffffffffffffff163162015180604051808381526020018281526020019250505060405180910390a15b806005908051906020019061034692919061176e565b507fd70cc1e32074615def53244ff7802576bce56e46b0223171f06ae897756e068842823073ffffffffffffffffffffffffffffffffffffffff16316040518084815260200180602001838152602001828103825284818151815260200191508051906020019080838360005b838110156103ce5780820151818401526020810190506103b3565b50505050905090810190601f1680156103fb5780820380516001836020036101000a031916815260200191505b5094505050505060405180910390a15050565b505050565b3073ffffffffffffffffffffffffffffffffffffffff16316104696040805190810160405280600381526020017f55524c0000000000000000000000000000000000000000000000000000000000815250610937565b111561047457610539565b610537603c6040805190810160405280600381526020017f55524c0000000000000000000000000000000000000000000000000000000000815250608060405190810160405280604c81526020017f6a736f6e2868747470733a2f2f6170692e6b72616b656e2e636f6d2f302f707581526020017f626c69632f5469636b65723f706169723d455448555344292e726573756c742e81526020017f584554485a5553442e632e300000000000000000000000000000000000000000815250610d07565b505b565b60058054600181600116156101000203166002900480601f0160208091040260200160405190810160405280929190818152602001828054600181600116156101000203166002900480156105d15780601f106105a6576101008083540402835291602001916105d1565b820191906000526020600020905b8154815290600101906020018083116105b457829003601f168201915b505050505081565b6000806000809054906101000a900473ffffffffffffffffffffffffffffffffffffffff1673ffffffffffffffffffffffffffffffffffffffff161480610649575060006106476000809054906101000a900473ffffffffffffffffffffffffffffffffffffffff166112a9565b145b1561065a5761065860006112b4565b505b6000809054906101000a900473ffffffffffffffffffffffffffffffffffffffff1673ffffffffffffffffffffffffffffffffffffffff166338cc48316040518163ffffffff167c0100000000000000000000000000000000000000000000000000000000028152600401602060405180830381600087803b1580156106df57600080fd5b505af11580156106f3573d6000803e3d6000fd5b505050506040513d602081101561070957600080fd5b810190808051906020019092919050505073ffffffffffffffffffffffffffffffffffffffff16600160009054906101000a900473ffffffffffffffffffffffffffffffffffffffff1673ffffffffffffffffffffffffffffffffffffffff16141515610871576000809054906101000a900473ffffffffffffffffffffffffffffffffffffffff1673ffffffffffffffffffffffffffffffffffffffff166338cc48316040518163ffffffff167c0100000000000000000000000000000000000000000000000000000000028152600401602060405180830381600087803b1580156107f557600080fd5b505af1158015610809573d6000803e3d6000fd5b505050506040513d602081101561081f57600080fd5b8101908080519060200190929190505050600160006101000a81548173ffffffffffffffffffffffffffffffffffffffff021916908373ffffffffffffffffffffffffffffffffffffffff1602179055505b600160009054906101000a900473ffffffffffffffffffffffffffffffffffffffff1673ffffffffffffffffffffffffffffffffffffffff1663c281d19e6040518163ffffffff167c0100000000000000000000000000000000000000000000000000000000028152600401602060405180830381600087803b1580156108f757600080fd5b505af115801561090b573d6000803e3d6000fd5b505050506040513d602081101561092157600080fd5b8101908080519060200190929190505050905090565b6000806000809054906101000a900473ffffffffffffffffffffffffffffffffffffffff1673ffffffffffffffffffffffffffffffffffffffff1614806109a7575060006109a56000809054906101000a900473ffffffffffffffffffffffffffffffffffffffff166112a9565b145b156109b8576109b660006112b4565b505b6000809054906101000a900473ffffffffffffffffffffffffffffffffffffffff1673ffffffffffffffffffffffffffffffffffffffff166338cc48316040518163ffffffff167c0100000000000000000000000000000000000000000000000000000000028152600401602060405180830381600087803b158015610a3d57600080fd5b505af1158015610a51573d6000803e3d6000fd5b505050506040513d6020811015610a6757600080fd5b810190808051906020019092919050505073ffffffffffffffffffffffffffffffffffffffff16600160009054906101000a900473ffffffffffffffffffffffffffffffffffffffff1673ffffffffffffffffffffffffffffffffffffffff16141515610bcf576000809054906101000a900473ffffffffffffffffffffffffffffffffffffffff1673ffffffffffffffffffffffffffffffffffffffff166338cc48316040518163ffffffff167c0100000000000000000000000000000000000000000000000000000000028152600401602060405180830381600087803b158015610b5357600080fd5b505af1158015610b67573d6000803e3d6000fd5b505050506040513d6020811015610b7d57600080fd5b8101908080519060200190929190505050600160006101000a81548173ffffffffffffffffffffffffffffffffffffffff021916908373ffffffffffffffffffffffffffffffffffffffff1602179055505b600160009054906101000a900473ffffffffffffffffffffffffffffffffffffffff1673ffffffffffffffffffffffffffffffffffffffff1663524f3889836040518263ffffffff167c01000000000000000000000000000000000000000000000000000000000281526004018080602001828103825283818151815260200191508051906020019080838360005b83811015610c79578082015181840152602081019050610c5e565b50505050905090810190601f168015610ca65780820380516001836020036101000a031916815260200191505b5092505050602060405180830381600087803b158015610cc557600080fd5b505af1158015610cd9573d6000803e3d6000fd5b505050506040513d6020811015610cef57600080fd5b81019080805190602001909291905050509050919050565b60008060008060009054906101000a900473ffffffffffffffffffffffffffffffffffffffff1673ffffffffffffffffffffffffffffffffffffffff161480610d7957506000610d776000809054906101000a900473ffffffffffffffffffffffffffffffffffffffff166112a9565b145b15610d8a57610d8860006112b4565b505b6000809054906101000a900473ffffffffffffffffffffffffffffffffffffffff1673ffffffffffffffffffffffffffffffffffffffff166338cc48316040518163ffffffff167c0100000000000000000000000000000000000000000000000000000000028152600401602060405180830381600087803b158015610e0f57600080fd5b505af1158015610e23573d6000803e3d6000fd5b505050506040513d6020811015610e3957600080fd5b810190808051906020019092919050505073ffffffffffffffffffffffffffffffffffffffff16600160009054906101000a900473ffffffffffffffffffffffffffffffffffffffff1673ffffffffffffffffffffffffffffffffffffffff16141515610fa1576000809054906101000a900473ffffffffffffffffffffffffffffffffffffffff1673ffffffffffffffffffffffffffffffffffffffff166338cc48316040518163ffffffff167c0100000000000000000000000000000000000000000000000000000000028152600401602060405180830381600087803b158015610f2557600080fd5b505af1158015610f39573d6000803e3d6000fd5b505050506040513d6020811015610f4f57600080fd5b8101908080519060200190929190505050600160006101000a81548173ffffffffffffffffffffffffffffffffffffffff021916908373ffffffffffffffffffffffffffffffffffffffff1602179055505b600160009054906101000a900473ffffffffffffffffffffffffffffffffffffffff1673ffffffffffffffffffffffffffffffffffffffff1663524f3889856040518263ffffffff167c01000000000000000000000000000000000000000000000000000000000281526004018080602001828103825283818151815260200191508051906020019080838360005b8381101561104b578082015181840152602081019050611030565b50505050905090810190601f1680156110785780820380516001836020036101000a031916815260200191505b5092505050602060405180830381600087803b15801561109757600080fd5b505af11580156110ab573d6000803e3d6000fd5b505050506040513d60208110156110c157600080fd5b8101908080519060200190929190505050905062030d403a02670de0b6b3a7640000018111156110f757600060010291506112a1565b600160009054906101000a900473ffffffffffffffffffffffffffffffffffffffff1673ffffffffffffffffffffffffffffffffffffffff1663adf59f99828787876040518563ffffffff167c0100000000000000000000000000000000000000000000000000000000028152600401808481526020018060200180602001838103835285818151815260200191508051906020019080838360005b838110156111ae578082015181840152602081019050611193565b50505050905090810190601f1680156111db5780820380516001836020036101000a031916815260200191505b50838103825284818151815260200191508051906020019080838360005b838110156112145780820151818401526020810190506111f9565b50505050905090810190601f1680156112415780820380516001836020036101000a031916815260200191505b50955050505050506020604051808303818588803b15801561126257600080fd5b505af1158015611276573d6000803e3d6000fd5b50505050506040513d602081101561128d57600080fd5b810190808051906020019092919050505091505b509392505050565b6000813b9050919050565b60006112be6112c5565b9050919050565b6000806112e5731d3b2638a7cc9f2cb3d298a3da7a90b67e5506ed6112a9565b111561138657731d3b2638a7cc9f2cb3d298a3da7a90b67e5506ed6000806101000a81548173ffffffffffffffffffffffffffffffffffffffff021916908373ffffffffffffffffffffffffffffffffffffffff16021790555061137d6040805190810160405280600b81526020017f6574685f6d61696e6e6574000000000000000000000000000000000000000000815250611754565b60019050611751565b60006113a573c03a2615d5efaf5f49f60b7bb6583eaec212fdf16112a9565b11156114465773c03a2615d5efaf5f49f60b7bb6583eaec212fdf16000806101000a81548173ffffffffffffffffffffffffffffffffffffffff021916908373ffffffffffffffffffffffffffffffffffffffff16021790555061143d6040805190810160405280600c81526020017f6574685f726f707374656e330000000000000000000000000000000000000000815250611754565b60019050611751565b600061146573b7a07bcf2ba2f2703b24c0691b5278999c59ac7e6112a9565b11156115065773b7a07bcf2ba2f2703b24c0691b5278999c59ac7e6000806101000a81548173ffffffffffffffffffffffffffffffffffffffff021916908373ffffffffffffffffffffffffffffffffffffffff1602179055506114fd6040805190810160405280600981526020017f6574685f6b6f76616e0000000000000000000000000000000000000000000000815250611754565b60019050611751565b600061152573146500cfd35b22e4a392fe0adc06de1a1368ed486112a9565b11156115c65773146500cfd35b22e4a392fe0adc06de1a1368ed486000806101000a81548173ffffffffffffffffffffffffffffffffffffffff021916908373ffffffffffffffffffffffffffffffffffffffff1602179055506115bd6040805190810160405280600b81526020017f6574685f72696e6b656279000000000000000000000000000000000000000000815250611754565b60019050611751565b60006115e5736f485c8bf6fc43ea212e93bbf8ce046c7f1cb4756112a9565b111561164857736f485c8bf6fc43ea212e93bbf8ce046c7f1cb4756000806101000a81548173ffffffffffffffffffffffffffffffffffffffff021916908373ffffffffffffffffffffffffffffffffffffffff16021790555060019050611751565b60006116677320e12a1f859b3feae5fb2a0a32c18f5a65555bbf6112a9565b11156116ca577320e12a1f859b3feae5fb2a0a32c18f5a65555bbf6000806101000a81548173ffffffffffffffffffffffffffffffffffffffff021916908373ffffffffffffffffffffffffffffffffffffffff16021790555060019050611751565b60006116e97351efaf4c8b3c9afbd5ab9f4bbc82784ab6ef8faa6112a9565b111561174c577351efaf4c8b3c9afbd5ab9f4bbc82784ab6ef8faa6000806101000a81548173ffffffffffffffffffffffffffffffffffffffff021916908373ffffffffffffffffffffffffffffffffffffffff16021790555060019050611751565b600090505b90565b806002908051906020019061176a92919061176e565b5050565b828054600181600116156101000203166002900490600052602060002090601f016020900481019282601f106117af57805160ff19168380011785556117dd565b828001600101855582156117dd579182015b828111156117dc5782518255916020019190600101906117c1565b5b5090506117ea91906117ee565b5090565b61181091905b8082111561180c5760008160009055506001016117f4565b5090565b905600a165627a7a72305820965b4bd38964da5f2397cabd67bf95764655782b70ade3a341b46b538442076d0029",
  "source": "pragma solidity ^0.4.23;\nimport \"./OraclizeI.sol\";\n\ncontract Ethprice is usingOraclize{\n\n\tstring public ETHUSD = \"test\";\n\n\tevent ETHUSDUpdated(uint _time, string _newprice, uint gasLeft);\n\tevent LowGasWarning(uint _remainingGas, uint estimateRemainingTime);\n\t\n\tconstructor() payable {\n\t\toraclize_query(3000, \"URL\", \"json(https://api.kraken.com/0/public/Ticker?pair=ETHUSD).result.XETHZUSD.c.0\");\n\t}\n\n\t function updatePrice() payable {\n        if (oraclize_getPrice(\"URL\") > this.balance) {\n            //LogNewOraclizeQuery(\"Oraclize query was NOT sent, please add some ETH to cover for the query fee\");\n        } else {\n            //LogNewOraclizeQuery(\"Oraclize query was sent, standing by for the answer..\");\n            oraclize_query(60, \"URL\", \"json(https://api.kraken.com/0/public/Ticker?pair=ETHUSD).result.XETHZUSD.c.0\");\n        }\n    }\n\n\tfunction __callback(bytes32 myid, string result){\n\t\tif (msg.sender != oraclize_cbAddress()) revert();\n\t\tif(oraclize_getPrice(\"URL\")*288 > this.balance){\n\t\t\tLowGasWarning(this.balance, day);\n\t\t}\n\t\t\t\n\t\tETHUSD = result;\n        ETHUSDUpdated(now,result, this.balance);\n\t}\n\n}",
  "sourcePath": "/Users/bit1/BrandonDev/Oracle/contracts/ETHprice.sol",
  "compiler": {
    "name": "solc",
    "version": "0.4.24+commit.e67f0147.Emscripten.clang"
  },
  "schemaVersion": "2.0.0",
  "updatedAt": "2018-07-17T15:56:47.593Z"
}